:100000000C945A000C9477000C9477000C947700B1
:100010000C9477000C9477000C9477000C94770084
:100020000C9477000C9477000C9477000C94770074
:100030000C9477000C9477000C94C5000C94770016
:100040000C9477000C9477000C9477000C94770054
:100050000C9477000C9467010C9477000C94770053
:100060000C9477000C9477000C9477000C94640245
:100070000C9477000C9477000C9477000C94770024
:100080000C9477000C94FF020C9477000C9477008A
:100090000C9477000C9477000C9477000C94770004
:1000A0000C9477000C9477000C9477000C947700F4
:1000B0000C94770011241FBECFEFD8E0DEBFCDBF78
:1000C00011E0A0E0B1E0E0E2FCE002C005900D929A
:1000D000A23AB107D9F721E0A2EAB1E001C01D922E
:1000E000A23CB207E1F70E9415050C940E060C9491
:1000F0000000E82FF0E0EE5DFE4F80818095282F14
:100100002370220F220F220F382F3074922F932B3F
:10011000482F44704295440F407E242F292B982F5E
:100120009870492F50E055954795422B982F907124
:10013000292F30E0359527953595279535952795C5
:10014000242B85FB992790F9822F892B2091BA01C6
:1001500070E0982F9F7095B930E0AB014150510984
:1001600002C0359527954A95E2F72170220F209518
:10017000806282958F7062957295707F7627607F1E
:100180007627682B262328B908951F920F920FB661
:100190000F9211242F933F934F935F936F937F930D
:1001A0008F939F93AF93BF93EF93FF938091BD0184
:1001B0008F5F8093BD019091B901992339F087FD3C
:1001C00005C060E080E00E94790007C0459916C034
:1001D0008091BE0162E00E947900FF91EF91BF9192
:1001E000AF919F918F917F916F915F914F913F91CF
:1001F0002F910F900FBE0F901F9018958091BF0107
:1002000061E00E947900E9CF0F931F93CF93DF93B2
:10021000CDB7DEB72A970FB6F894DEBF0FBECDBFBD
:100220008C014AE0BE016F5F7F4F883C9105F4F47A
:10023000073F8FEF180754F587EF9FEF0E94D9050E
:1002400089818093BE018A818093BF018091BA0128
:100250008D7F8093BA012A960FB6F894DEBF0FBE49
:10026000CDBFDF91CF911F910F91089587EC90E062
:100270000E94D9058A818093BE018B818093BF0142
:100280008091BA0182608093BA01E5CFC8010E94D3
:10029000D9050A30110560F480E28093BE0189819E
:1002A0008093BF018091BA018D7F8093BA01D3CF33
:1002B00004361105FCF6C4CFECE7F0E09081907FA6
:1002C000282F2F70922B90838093B80108951F924E
:1002D0000F920FB60F9211242F933F934F935F937A
:1002E0008F939F938091B801863009F46FC0873057
:1002F000C9F18091B2019091B3012091B201309186
:10030000B30140917900840F911D36952795329560
:1003100022952F7023273F702327821B930B9093E6
:10032000B3018093B20180917C00807F86608093CE
:100330007C0086E08093B80187EC90E00197F1F7AC
:1003400000C0000080917A00806480937A009F91C1
:100350008F915F914F913F912F910F900FBE0F9012
:100360001F9018958091B4019091B501209179006A
:10037000AC0156954795529542954F7045275F7051
:100380004527841B950B821B910981509F4F9093A9
:10039000B5018093B40180917C00807F8E60809352
:1003A0007C008EE08093B8018091B4019091B501FA
:1003B000409696958795929582958F7089279F7024
:1003C00089279093B0018093AF01B6CF8091B60199
:1003D0009091B70120917900AC01569547955295BF
:1003E00042954F7045275F704527841B950B821BF4
:1003F000910981509F4F9093B7018093B6018091EE
:100400007C00807F876080937C0087E08093B801C8
:100410008091B6019091B7014096969587959295F7
:1004200082958F7089279F7089279093AE01809362
:10043000AD012091AD013091AE018091AB01909161
:10044000AC012817390709F477CF8091AD0190915D
:10045000AE019093AC018093AB016ECF1092A701D7
:100460001092A6018091C0019091C10101969093D4
:10047000C1018093C0018091C0019091C101883C6D
:10048000910534F087EC90E09093C1018093C00116
:1004900008951092A7011092A6018091C001909139
:1004A000C10101979093C1018093C0018091C00167
:1004B0009091C101873F9F4F34F487EF9FEF909356
:1004C000C1018093C00108951F920F920FB60F9241
:1004D00011242F933F934F935F938F939F938CB1EE
:1004E00083709091A80140E1949F90011124282BE2
:1004F000891751F0213079F1223369F1233279F0F3
:10050000203169F08093A8019F918F915F914F9165
:100510003F912F910F900FBE0F901F901895109242
:10052000A7011092A6012091C0013091C101215074
:1005300031093093C1012093C0012091C001309155
:10054000C101273F3F4FF4F627EF3FEF3093C10142
:100550002093C001D7CF1092A7011092A60140911D
:10056000C0015091C1014F5F5F4F5093C101409353
:10057000C0014091C0015091C101483C510514F2A5
:1005800047EC50E05093C1014093C001233209F081
:10059000B7CFC5CF8091AD019091AE01892B71F09D
:1005A00080E090E022E02A95F1F700C001962091CA
:1005B000AD013091AE0182179307A0F308959BB16E
:1005C0009F709BB99091BB0192502BB18770E82F1F
:1005D000F0E0923050F0E65EFE4F908130E1939F64
:1005E000C0011124822B8BB90895EE5EFE4F9081DD
:1005F00030E1939FC0011124822B8BB908951F9283
:100600000F920FB60F9211240F931F932F933F93C6
:100610004F935F936F937F938F939F93AF93BF930A
:10062000CF93DF93EF93FF938091BB01813009F467
:100630009DC0833009F4A3C00091A4011091A501CD
:10064000CBE2D0E08091A2019091A30180179107A5
:100650000CF45CC08091A2019091A30108171907C6
:1006600054F18091AF019091B001969587950196D4
:1006700090939900809398008091A2019091A3019A
:100680008C179D07B4F45B98FF91EF91DF91CF91A8
:10069000BF91AF919F918F917F916F915F914F919A
:1006A0003F912F911F910F910F900FBE0F901F90B0
:1006B00018955B9AE9CF8091A2019091A3010197CF
:1006C0009093A3018093A20158988AE18A95F1F74B
:1006D00000C0599A8091A2019091A3010E94DF026B
:1006E0008091AD019091AE01892B71F080E090E096
:1006F00022E02A95F1F700C001962091AD013091DA
:10070000AE0182179307A0F35998ABCF8091A20155
:100710009091A30101969093A3018093A201589A0E
:100720002AE12A95F1F700C0599A8091A20190918F
:10073000A3010E94DF028091AD019091AE01892B4F
:1007400071F080E090E022E02A95F1F700C0019678
:100750002091AD013091AE0182179307A0F3599813
:100760008AE18A95F1F700C0589874CF0091A401EE
:100770001091A501000F111FC6E5D0E063CF809155
:10078000A4019091A5018C01000F111F080F191FE2
:10079000C0E4D0E057CF1F990DC08091BC018A30D2
:1007A00038F491E0980F9093BC0181E09A3009F001
:1007B00080E008951092BC0180E008950F931F938C
:1007C000CF93DF93DC010091C0011091C101462F4E
:1007D00050E06150EA0121971EC01F9935C09091E9
:1007E000BC019A3028F49F5F9093BC019A3079F154
:1007F000E82FEE0FFF0BEA0FFB1F90819093BE01D5
:1008000091819093BF011E9B23C08FEC97E00197CD
:10081000F1F700C000002091C0013091C101822F8A
:10082000022E000C330B241735072CF0862FD093A3
:10083000C101C093C00187FFD0CF1092C1011092B7
:10084000C00180E01F9BCBCF1092BC01D1CF8FEFB6
:100850001093C1010093C001DF91CF911F910F91BF
:10086000089564E08AE091E00E94DE038F3F11F07A
:100870008093BB010895AF92BF92CF92DF92EF9227
:10088000FF920F931F93CF93DF93A090C001B0907E
:10089000C101C091C001D091C1011092C10110925B
:1008A000C0011092A5011092A401C82EC694D12CAB
:1008B00092E0E92EF12C082F10E03EC09091BC018F
:1008C0009A3030F49F5F9093BC019A3009F448C08D
:1008D0008091C0019091C101039724F0F092C10171
:1008E000E092C0018091C0019091C10197FD29C0A3
:1008F0008091C0019091C101C817D90789F0C091BA
:10090000C001D091C1018091C0019091C10181309D
:10091000910509F10297D1F01092A5011092A4015E
:100920008091A2019091A3010E9404018FEC97E0B5
:100930000197F1F700C000001F9BC0CF1092BC01CF
:10094000C7CF1092C1011092C001D2CF1093A50160
:100950000093A401E5CFD092A501C092A401E0CFFD
:10096000B092C101A092C001DF91CF911F910F9170
:10097000FF90EF90DF90CF90BF90AF90089580EB05
:100980009FEF9093A5018093A4018FE19EE40197CE
:10099000F1F700C0000002C04A9B18C02091A201DC
:1009A0003091A3018091A4019091A50128173907E6
:1009B00099F71092A3011092A2011092A501109232
:1009C000A4011092C1011092C0010895F8941092F0
:1009D000A5011092A4011092A3011092A2011092FD
:1009E000C1011092C0017894089565E080E091E023
:1009F0000E94DE038230B1F03CF4882389F081301C
:100A000059F48FE40C943B04833039F0843019F4AA
:100A100082E20C943B040895089587E20C943B0411
:100A20000C94BF048CE40C943B048BEF8AB994E0E3
:100A30009BB98FE084B98FE387B91DB883E08093B9
:100A4000730088E08093680082E084BD95BD90E2E9
:100A500097BD80936E00109290009DE0909391005E
:100A60002FE330E030939900209398008093710039
:100A700080E680937C008FE880937A0080917C00F0
:100A8000807F866080937C0086E08093B8017894B4
:100A900080917A00806480937A001092BA0188E491
:100AA0008093BE0189E48093BF012FEF86E191E13D
:100AB000215080409040E1F700C0000064E08AE0EF
:100AC00091E00E94DE038F3F11F08093BB0180E034
:100AD0000E94DF02C1E011C08091BC018A3038F46D
:100AE0008F5F8093BC018A3011F40E94F5048FEC73
:100AF00097E00197F1F700C000002091C00130910C
:100B0000C1018091A4019091A5012817390709F42A
:100B100047C08091B901811106C0C093B9011092FC
:100B2000A7011092A6018091C0019091C1010E947D
:100B300004018091B9018823D1F08091A6019091A0
:100B4000A70101969093A7018093A6018091A60129
:100B50009091A701813D974050F01092B90180918A
:100B6000A4019091A5019093C1018093C00183B12C
:100B70009091B90186FB882780F98C1761F0992341
:100B800051F01092B9018091C0019091C1019093F0
:100B9000A5018093A4011F9B9FCF1092BC01A7CFFA
:100BA0001092B9018091A4019091A5010E940401C5
:100BB000C0CFBB274A3031F4992322F4BDE290958F
:100BC00081959F4F0C94E505BB27FB015527AA276C
:100BD000880F991FAA1FA41710F0A41B83955051CA
:100BE000B9F7A05DAA3308F0A95DA193009779F742
:100BF000B111B1931192CB010C94FE05DC01FC0103
:100C0000672F71917723E1F7329704C07C916D9340
:100C100070836291AE17BF07C8F30895F894FFCFB1
:100C2000484F413841374134333553534453485387
:100C3000313501030206040C08090102040801020F
:100C400004083F065B4F666D7D077F6F777C395EDA
:100C500079710000000000000000000000000000AA
:100C600000000000000000000000390F00000440F8
:100C700080003F065B4F666D7D077F6F0000004878
:100C8000000000777C395E79713D76301E7538152D
:100C9000545C7367506D783E3E2A766E5B30060674
:100CA000010820777C395E79713D76301E753815E4
:100CB000545C7367506D783E3E2A766E5B39300F18
:020CC0004000F2
:00000001FF
